{
  "address": "0xb8e907d1c0DA05a90CC21594C255C3a7Bf8b8154",
  "abi": [
    {
      "anonymous": false,
      "inputs": [
        {
          "indexed": true,
          "internalType": "contract IERC1155",
          "name": "token",
          "type": "address"
        },
        {
          "indexed": true,
          "internalType": "address",
          "name": "sender",
          "type": "address"
        },
        {
          "indexed": false,
          "internalType": "address",
          "name": "recipient",
          "type": "address"
        },
        {
          "indexed": false,
          "internalType": "uint256[]",
          "name": "ids",
          "type": "uint256[]"
        },
        {
          "indexed": false,
          "internalType": "uint256[]",
          "name": "amounts",
          "type": "uint256[]"
        }
      ],
      "name": "TokensDistributed",
      "type": "event"
    },
    {
      "inputs": [
        {
          "internalType": "contract IERC1155",
          "name": "token",
          "type": "address"
        },
        {
          "internalType": "address[]",
          "name": "recipients",
          "type": "address[]"
        },
        {
          "internalType": "uint256[]",
          "name": "ids",
          "type": "uint256[]"
        },
        {
          "internalType": "uint256[][]",
          "name": "amounts",
          "type": "uint256[][]"
        },
        {
          "internalType": "bytes",
          "name": "data",
          "type": "bytes"
        }
      ],
      "name": "distribute",
      "outputs": [],
      "stateMutability": "nonpayable",
      "type": "function"
    }
  ],
  "transactionHash": "0x56629748e9e3f57de7b95093d7fc0a80fdbd1455ac58cdd44a1bf90112b66295",
  "args": [],
  "numDeployments": 1,
  "solcInputHash": "87de72a994d398b56a74542c6dfd73e9",
  "bytecode": "0x608060405234801561001057600080fd5b50610bb9806100206000396000f3fe608060405234801561001057600080fd5b506004361061002b5760003560e01c8063a5e927ed14610030575b600080fd5b61004361003e366004610812565b610045565b005b60405163e985e9c560e01b81523360048201523060248201526001600160a01b038a169063e985e9c590604401602060405180830381865afa15801561008f573d6000803e3d6000fd5b505050506040513d601f19601f820116820180604052508101906100b39190610915565b61011e5760405162461bcd60e51b815260206004820152603160248201527f53656e64657220686173206e6f7420617070726f76656420636f6e7472616374604482015270103337b9103234b9ba3934b13aba34b7b760791b60648201526084015b60405180910390fd5b8683146101a85760405162461bcd60e51b815260206004820152604c60248201527f496e76616c696420696e7075743a20726563697069656e747320616e6420616d60448201527f6f756e7473206d7573742068617665207468652073616e6d65206e756d62657260648201526b206f6620656c656d656e747360a01b608482015260a401610115565b60005b858110156103b95760008a6001600160a01b031662fdd58e338a8a868181106101d6576101d661093e565b6040516001600160e01b031960e087901b1681526001600160a01b0390941660048501526020029190910135602483015250604401602060405180830381865afa158015610228573d6000803e3d6000fd5b505050506040513d601f19601f8201168201806040525081019061024c9190610954565b90506000805b8681101561035c578888888381811061026d5761026d61093e565b905060200281019061027f919061096d565b9050146103025760405162461bcd60e51b815260206004820152604560248201527f496e76616c696420696e7075743a20746865206e756d626572206f6620616d6f60448201527f756e747320646f6573206e6f74206d6174636820746865206e756d626572206f606482015264662069647360d81b608482015260a401610115565b8787828181106103145761031461093e565b9050602002810190610326919061096d565b858181106103365761033661093e565b905060200201358261034891906109cd565b915080610354816109e6565b915050610252565b50818111156103a45760405162461bcd60e51b8152602060048201526014602482015273496e73756666696369656e742062616c616e636560601b6044820152606401610115565b505080806103b1906109e6565b9150506101ab565b5060005b8781101561072f576000805b87811015610433578686848181106103e3576103e361093e565b90506020028101906103f5919061096d565b828181106104055761040561093e565b90506020020135600014610421578161041d816109e6565b9250505b8061042b816109e6565b9150506103c9565b50801561071c5760008167ffffffffffffffff811115610455576104556109ff565b60405190808252806020026020018201604052801561047e578160200160208202803683370190505b50905060008267ffffffffffffffff81111561049c5761049c6109ff565b6040519080825280602002602001820160405280156104c5578160200160208202803683370190505b5090506000805b8a8110156105c5578989878181106104e6576104e661093e565b90506020028101906104f8919061096d565b828181106105085761050861093e565b905060200201356000146105b3578b8b828181106105285761052861093e565b905060200201358483815181106105415761054161093e565b60200260200101818152505089898781811061055f5761055f61093e565b9050602002810190610571919061096d565b828181106105815761058161093e565b9050602002013583838151811061059a5761059a61093e565b6020908102919091010152816105af816109e6565b9250505b806105bd816109e6565b9150506104cc565b5061061d6040518060400160405280600f81526020016e73656e64696e6720666f723a20257360881b8152508e8e888181106106035761060361093e565b90506020020160208101906106189190610a15565b61073b565b8d6001600160a01b0316632eb2c2d6338f8f8981811061063f5761063f61093e565b90506020020160208101906106549190610a15565b86868c8c6040518763ffffffff1660e01b815260040161067996959493929190610a6d565b600060405180830381600087803b15801561069357600080fd5b505af11580156106a7573d6000803e3d6000fd5b5033925050506001600160a01b038f167f19ea13673fdd13239610e7750fc0b07c01064e048e91e3bd2b92027bdd504da18f8f898181106106ea576106ea61093e565b90506020020160208101906106ff9190610a15565b868660405161071093929190610ae3565b60405180910390a35050505b5080610727816109e6565b9150506103bd565b50505050505050505050565b6107808282604051602401610751929190610b23565b60408051601f198184030181529190526020810180516001600160e01b031663319af33360e01b179052610784565b5050565b61078d81610790565b50565b60006a636f6e736f6c652e6c6f679050600080835160208501845afa505050565b6001600160a01b038116811461078d57600080fd5b60008083601f8401126107d857600080fd5b50813567ffffffffffffffff8111156107f057600080fd5b6020830191508360208260051b850101111561080b57600080fd5b9250929050565b600080600080600080600080600060a08a8c03121561083057600080fd5b893561083b816107b1565b985060208a013567ffffffffffffffff8082111561085857600080fd5b6108648d838e016107c6565b909a50985060408c013591508082111561087d57600080fd5b6108898d838e016107c6565b909850965060608c01359150808211156108a257600080fd5b6108ae8d838e016107c6565b909650945060808c01359150808211156108c757600080fd5b818c0191508c601f8301126108db57600080fd5b8135818111156108ea57600080fd5b8d60208285010111156108fc57600080fd5b6020830194508093505050509295985092959850929598565b60006020828403121561092757600080fd5b8151801515811461093757600080fd5b9392505050565b634e487b7160e01b600052603260045260246000fd5b60006020828403121561096657600080fd5b5051919050565b6000808335601e1984360301811261098457600080fd5b83018035915067ffffffffffffffff82111561099f57600080fd5b6020019150600581901b360382131561080b57600080fd5b634e487b7160e01b600052601160045260246000fd5b808201808211156109e0576109e06109b7565b92915050565b6000600182016109f8576109f86109b7565b5060010190565b634e487b7160e01b600052604160045260246000fd5b600060208284031215610a2757600080fd5b8135610937816107b1565b600081518084526020808501945080840160005b83811015610a6257815187529582019590820190600101610a46565b509495945050505050565b6001600160a01b0387811682528616602082015260a060408201819052600090610a9990830187610a32565b8281036060840152610aab8187610a32565b90508281036080840152838152838560208301376000602085830101526020601f19601f860116820101915050979650505050505050565b6001600160a01b0384168152606060208201819052600090610b0790830185610a32565b8281036040840152610b198185610a32565b9695505050505050565b604081526000835180604084015260005b81811015610b515760208187018101516060868401015201610b34565b50600060608285018101919091526001600160a01b03949094166020840152601f01601f19169091019091019291505056fea264697066735822122023c5b214c6bdba683bf93a2fd76a7f54fed1bf4e9687f5baaa0b072e01ebd9d464736f6c63430008110033",
  "devdoc": {
    "author": "PG",
    "details": "Does some sanity checks and optimize for gas",
    "events": {
      "TokensDistributed(address,address,address,uint256[],uint256[])": {
        "details": "Emitted when tokens are distributed",
        "params": {
          "amounts": "An array of the amounts of tokens distributed to that recipient",
          "ids": "An array of token IDs that were sent to that recipient",
          "recipient": "The address that received the tokens",
          "sender": "The address that initiated the distribution",
          "token": "The address of the IERC1155 token contract used for the distribution"
        }
      }
    },
    "kind": "dev",
    "methods": {
      "distribute(address,address[],uint256[],uint256[][],bytes)": {
        "details": "Reverts the whole transaction if initial balance is insufficient. To allow for this       all amounts need to have the same length as ids (including 0s)",
        "params": {
          "amounts": "A 2D array where each sub-array corresponds to the amounts of tokens for each recipient",
          "data": "Additional data to pass along with the distribution",
          "ids": "An array of token IDs that will be distributed",
          "recipients": "An array of addresses that will receive the tokens",
          "token": "The address of the IERC1155 token contract that will be used for distribution"
        }
      }
    },
    "title": "Distribute Prizes for Aavegotchi Forge competition",
    "version": 1
  },
  "userdoc": {
    "kind": "user",
    "methods": {
      "distribute(address,address[],uint256[],uint256[][],bytes)": {
        "notice": "Batch send NFTs to recipients"
      }
    },
    "notice": "The contract is permissionless and has no owner, it can be used to distribute any erc1155 token",
    "version": 1
  },
  "storageLayout": {
    "storage": [],
    "types": null
  }
}